{
  "contractName": "SNAFU20Pair",
  "abi": [
    {
      "inputs": [
        {
          "internalType": "string",
          "name": "_name",
          "type": "string"
        },
        {
          "internalType": "string",
          "name": "_symbol",
          "type": "string"
        },
        {
          "internalType": "uint256",
          "name": "_initialSupply",
          "type": "uint256"
        },
        {
          "internalType": "address",
          "name": "_nftAddress",
          "type": "address"
        },
        {
          "internalType": "address",
          "name": "_daoAddress",
          "type": "address"
        },
        {
          "internalType": "uint256",
          "name": "_fee",
          "type": "uint256"
        },
        {
          "internalType": "uint256",
          "name": "_max_token_value_cap",
          "type": "uint256"
        }
      ],
      "stateMutability": "nonpayable",
      "type": "constructor"
    },
    {
      "anonymous": false,
      "inputs": [
        {
          "indexed": true,
          "internalType": "address",
          "name": "owner",
          "type": "address"
        },
        {
          "indexed": true,
          "internalType": "address",
          "name": "spender",
          "type": "address"
        },
        {
          "indexed": false,
          "internalType": "uint256",
          "name": "value",
          "type": "uint256"
        }
      ],
      "name": "Approval",
      "type": "event"
    },
    {
      "anonymous": false,
      "inputs": [
        {
          "indexed": true,
          "internalType": "address",
          "name": "from",
          "type": "address"
        },
        {
          "indexed": true,
          "internalType": "address",
          "name": "to",
          "type": "address"
        },
        {
          "indexed": false,
          "internalType": "uint256",
          "name": "value",
          "type": "uint256"
        }
      ],
      "name": "Transfer",
      "type": "event"
    },
    {
      "anonymous": false,
      "inputs": [
        {
          "indexed": true,
          "internalType": "uint256[]",
          "name": "_tokenIds",
          "type": "uint256[]"
        },
        {
          "indexed": true,
          "internalType": "uint256[]",
          "name": "amounts",
          "type": "uint256[]"
        }
      ],
      "name": "Withdraw",
      "type": "event"
    },
    {
      "inputs": [
        {
          "internalType": "address",
          "name": "owner",
          "type": "address"
        },
        {
          "internalType": "address",
          "name": "spender",
          "type": "address"
        }
      ],
      "name": "allowance",
      "outputs": [
        {
          "internalType": "uint256",
          "name": "",
          "type": "uint256"
        }
      ],
      "stateMutability": "view",
      "type": "function"
    },
    {
      "inputs": [
        {
          "internalType": "address",
          "name": "spender",
          "type": "address"
        },
        {
          "internalType": "uint256",
          "name": "amount",
          "type": "uint256"
        }
      ],
      "name": "approve",
      "outputs": [
        {
          "internalType": "bool",
          "name": "",
          "type": "bool"
        }
      ],
      "stateMutability": "nonpayable",
      "type": "function"
    },
    {
      "inputs": [
        {
          "internalType": "address",
          "name": "account",
          "type": "address"
        }
      ],
      "name": "balanceOf",
      "outputs": [
        {
          "internalType": "uint256",
          "name": "",
          "type": "uint256"
        }
      ],
      "stateMutability": "view",
      "type": "function"
    },
    {
      "inputs": [
        {
          "internalType": "uint256",
          "name": "amount",
          "type": "uint256"
        }
      ],
      "name": "burn",
      "outputs": [],
      "stateMutability": "nonpayable",
      "type": "function"
    },
    {
      "inputs": [
        {
          "internalType": "address",
          "name": "account",
          "type": "address"
        },
        {
          "internalType": "uint256",
          "name": "amount",
          "type": "uint256"
        }
      ],
      "name": "burnFrom",
      "outputs": [],
      "stateMutability": "nonpayable",
      "type": "function"
    },
    {
      "inputs": [],
      "name": "daoAddress",
      "outputs": [
        {
          "internalType": "address",
          "name": "",
          "type": "address"
        }
      ],
      "stateMutability": "view",
      "type": "function"
    },
    {
      "inputs": [],
      "name": "decimals",
      "outputs": [
        {
          "internalType": "uint8",
          "name": "",
          "type": "uint8"
        }
      ],
      "stateMutability": "view",
      "type": "function"
    },
    {
      "inputs": [
        {
          "internalType": "address",
          "name": "spender",
          "type": "address"
        },
        {
          "internalType": "uint256",
          "name": "subtractedValue",
          "type": "uint256"
        }
      ],
      "name": "decreaseAllowance",
      "outputs": [
        {
          "internalType": "bool",
          "name": "",
          "type": "bool"
        }
      ],
      "stateMutability": "nonpayable",
      "type": "function"
    },
    {
      "inputs": [],
      "name": "fee",
      "outputs": [
        {
          "internalType": "uint256",
          "name": "",
          "type": "uint256"
        }
      ],
      "stateMutability": "view",
      "type": "function"
    },
    {
      "inputs": [
        {
          "internalType": "address",
          "name": "spender",
          "type": "address"
        },
        {
          "internalType": "uint256",
          "name": "addedValue",
          "type": "uint256"
        }
      ],
      "name": "increaseAllowance",
      "outputs": [
        {
          "internalType": "bool",
          "name": "",
          "type": "bool"
        }
      ],
      "stateMutability": "nonpayable",
      "type": "function"
    },
    {
      "inputs": [],
      "name": "max_token_value_cap",
      "outputs": [
        {
          "internalType": "uint256",
          "name": "",
          "type": "uint256"
        }
      ],
      "stateMutability": "view",
      "type": "function"
    },
    {
      "inputs": [],
      "name": "name",
      "outputs": [
        {
          "internalType": "string",
          "name": "",
          "type": "string"
        }
      ],
      "stateMutability": "view",
      "type": "function"
    },
    {
      "inputs": [],
      "name": "nftAddress",
      "outputs": [
        {
          "internalType": "address",
          "name": "",
          "type": "address"
        }
      ],
      "stateMutability": "view",
      "type": "function"
    },
    {
      "inputs": [],
      "name": "owner",
      "outputs": [
        {
          "internalType": "address",
          "name": "",
          "type": "address"
        }
      ],
      "stateMutability": "view",
      "type": "function"
    },
    {
      "inputs": [
        {
          "internalType": "bytes4",
          "name": "interfaceId",
          "type": "bytes4"
        }
      ],
      "name": "supportsInterface",
      "outputs": [
        {
          "internalType": "bool",
          "name": "",
          "type": "bool"
        }
      ],
      "stateMutability": "view",
      "type": "function"
    },
    {
      "inputs": [],
      "name": "symbol",
      "outputs": [
        {
          "internalType": "string",
          "name": "",
          "type": "string"
        }
      ],
      "stateMutability": "view",
      "type": "function"
    },
    {
      "inputs": [
        {
          "internalType": "uint256",
          "name": "",
          "type": "uint256"
        }
      ],
      "name": "tokenIdsToEditions",
      "outputs": [
        {
          "internalType": "uint256",
          "name": "",
          "type": "uint256"
        }
      ],
      "stateMutability": "view",
      "type": "function"
    },
    {
      "inputs": [],
      "name": "totalSupply",
      "outputs": [
        {
          "internalType": "uint256",
          "name": "",
          "type": "uint256"
        }
      ],
      "stateMutability": "view",
      "type": "function"
    },
    {
      "inputs": [
        {
          "internalType": "address",
          "name": "recipient",
          "type": "address"
        },
        {
          "internalType": "uint256",
          "name": "amount",
          "type": "uint256"
        }
      ],
      "name": "transfer",
      "outputs": [
        {
          "internalType": "bool",
          "name": "",
          "type": "bool"
        }
      ],
      "stateMutability": "nonpayable",
      "type": "function"
    },
    {
      "inputs": [
        {
          "internalType": "address",
          "name": "sender",
          "type": "address"
        },
        {
          "internalType": "address",
          "name": "recipient",
          "type": "address"
        },
        {
          "internalType": "uint256",
          "name": "amount",
          "type": "uint256"
        }
      ],
      "name": "transferFrom",
      "outputs": [
        {
          "internalType": "bool",
          "name": "",
          "type": "bool"
        }
      ],
      "stateMutability": "nonpayable",
      "type": "function"
    },
    {
      "inputs": [
        {
          "internalType": "uint256",
          "name": "tokenId",
          "type": "uint256"
        }
      ],
      "name": "getTokenValue",
      "outputs": [
        {
          "internalType": "uint256",
          "name": "",
          "type": "uint256"
        }
      ],
      "stateMutability": "view",
      "type": "function"
    },
    {
      "inputs": [
        {
          "internalType": "uint256",
          "name": "tokenId",
          "type": "uint256"
        }
      ],
      "name": "getTokenInfo",
      "outputs": [
        {
          "internalType": "uint256",
          "name": "",
          "type": "uint256"
        },
        {
          "internalType": "uint256",
          "name": "",
          "type": "uint256"
        }
      ],
      "stateMutability": "view",
      "type": "function"
    },
    {
      "inputs": [
        {
          "internalType": "uint256[]",
          "name": "_tokenIds",
          "type": "uint256[]"
        },
        {
          "internalType": "uint256[]",
          "name": "amounts",
          "type": "uint256[]"
        },
        {
          "internalType": "address",
          "name": "receipient",
          "type": "address"
        }
      ],
      "name": "withdraw",
      "outputs": [],
      "stateMutability": "nonpayable",
      "type": "function"
    },
    {
      "inputs": [
        {
          "internalType": "uint256[]",
          "name": "in_ids",
          "type": "uint256[]"
        },
        {
          "internalType": "uint256[]",
          "name": "in_amounts",
          "type": "uint256[]"
        },
        {
          "internalType": "uint256[]",
          "name": "out_ids",
          "type": "uint256[]"
        },
        {
          "internalType": "uint256[]",
          "name": "out_amounts",
          "type": "uint256[]"
        }
      ],
      "name": "swap1155",
      "outputs": [],
      "stateMutability": "nonpayable",
      "type": "function"
    },
    {
      "inputs": [
        {
          "internalType": "address",
          "name": "operator",
          "type": "address"
        },
        {
          "internalType": "address",
          "name": "",
          "type": "address"
        },
        {
          "internalType": "uint256",
          "name": "tokenId",
          "type": "uint256"
        },
        {
          "internalType": "uint256",
          "name": "value",
          "type": "uint256"
        },
        {
          "internalType": "bytes",
          "name": "data",
          "type": "bytes"
        }
      ],
      "name": "onERC1155Received",
      "outputs": [
        {
          "internalType": "bytes4",
          "name": "",
          "type": "bytes4"
        }
      ],
      "stateMutability": "nonpayable",
      "type": "function"
    },
    {
      "inputs": [
        {
          "internalType": "address",
          "name": "operator",
          "type": "address"
        },
        {
          "internalType": "address",
          "name": "",
          "type": "address"
        },
        {
          "internalType": "uint256[]",
          "name": "ids",
          "type": "uint256[]"
        },
        {
          "internalType": "uint256[]",
          "name": "values",
          "type": "uint256[]"
        },
        {
          "internalType": "bytes",
          "name": "data",
          "type": "bytes"
        }
      ],
      "name": "onERC1155BatchReceived",
      "outputs": [
        {
          "internalType": "bytes4",
          "name": "",
          "type": "bytes4"
        }
      ],
      "stateMutability": "nonpayable",
      "type": "function"
    },
    {
      "inputs": [
        {
          "internalType": "string",
          "name": "_name",
          "type": "string"
        },
        {
          "internalType": "string",
          "name": "_symbol",
          "type": "string"
        },
        {
          "internalType": "uint256",
          "name": "_max_token_value_cap",
          "type": "uint256"
        },
        {
          "internalType": "uint256",
          "name": "_fee",
          "type": "uint256"
        },
        {
          "internalType": "address",
          "name": "_owner",
          "type": "address"
        },
        {
          "internalType": "address",
          "name": "_daoAddress",
          "type": "address"
        }
      ],
      "name": "setParams",
      "outputs": [],
      "stateMutability": "nonpayable",
      "type": "function"
    },
    {
      "inputs": [
        {
          "internalType": "uint256",
          "name": "tokenId",
          "type": "uint256"
        },
        {
          "internalType": "uint256",
          "name": "editions",
          "type": "uint256"
        }
      ],
      "name": "setTokenEditions",
      "outputs": [],
      "stateMutability": "nonpayable",
      "type": "function"
    },
    {
      "inputs": [
        {
          "internalType": "uint256[]",
          "name": "tokenIds",
          "type": "uint256[]"
        },
        {
          "internalType": "uint256[]",
          "name": "editions",
          "type": "uint256[]"
        }
      ],
      "name": "setTokenEditionsBatch",
      "outputs": [],
      "stateMutability": "nonpayable",
      "type": "function"
    }
  ],
  "bytecode": "0x60806040523480156200001157600080fd5b5060405162002d1638038062002d16833981810160405260e08110156200003757600080fd5b81019080805160405193929190846401000000008211156200005857600080fd5b9083019060208201858111156200006e57600080fd5b82516401000000008111828201881017156200008957600080fd5b82525081516020918201929091019080838360005b83811015620000b85781810151838201526020016200009e565b50505050905090810190601f168015620000e65780820380516001836020036101000a031916815260200191505b50604052602001805160405193929190846401000000008211156200010a57600080fd5b9083019060208201858111156200012057600080fd5b82516401000000008111828201881017156200013b57600080fd5b82525081516020918201929091019080838360005b838110156200016a57818101518382015260200162000150565b50505050905090810190601f168015620001985780820380516001836020036101000a031916815260200191505b5060409081526020820151908201516060830151608084015160a0909401519295509093509190620001f37f01ffc9a700000000000000000000000000000000000000000000000000000000640100000000620002ca810204565b620002277f4e2312e000000000000000000000000000000000000000000000000000000000640100000000620002ca810204565b6200023c338664010000000062000399810204565b60078054600160a060020a03191633179055600b8290558651620002689060039060208a019062000550565b5085516200027e90600490602089019062000550565b506005805460ff1916601217905560098054600160a060020a03958616600160a060020a0319918216179091556008805494909516931692909217909255600a5550620005ec92505050565b7fffffffff0000000000000000000000000000000000000000000000000000000080821614156200035c57604080517f08c379a000000000000000000000000000000000000000000000000000000000815260206004820152601c60248201527f4552433136353a20696e76616c696420696e7465726661636520696400000000604482015290519081900360640190fd5b7fffffffff00000000000000000000000000000000000000000000000000000000166000908152600660205260409020805460ff19166001179055565b600160a060020a0382166200040f57604080517f08c379a000000000000000000000000000000000000000000000000000000000815260206004820152601f60248201527f45524332303a206d696e7420746f20746865207a65726f206164647265737300604482015290519081900360640190fd5b6200042660008383640100000000620004cf810204565b60025462000443908264010000000062001b43620004d482021704565b600255600160a060020a03821660009081526020819052604090205462000479908264010000000062001b43620004d482021704565b600160a060020a0383166000818152602081815260408083209490945583518581529351929391927fddf252ad1be2c89b69c2b068fc378daa952ba7f163c4a11628f55a4df523b3ef9281900390910190a35050565b505050565b6000828201838110156200054957604080517f08c379a000000000000000000000000000000000000000000000000000000000815260206004820152601b60248201527f536166654d6174683a206164646974696f6e206f766572666c6f770000000000604482015290519081900360640190fd5b9392505050565b828054600181600116156101000203166002900490600052602060002090601f016020900481019282601f106200059357805160ff1916838001178555620005c3565b82800160010185558215620005c3579182015b82811115620005c3578251825591602001919060010190620005a6565b50620005d1929150620005d5565b5090565b5b80821115620005d15760008155600101620005d6565b61271a80620005fc6000396000f3fe608060405234801561001057600080fd5b50600436106101ec576000357c01000000000000000000000000000000000000000000000000000000009004806370a0823111610121578063a457c2d7116100bf578063dd62ed3e1161008e578063dd62ed3e14610a75578063ddca3f4314610aa3578063f23a6e6114610aab578063ff87a39414610b76576101ec565b8063a457c2d714610807578063a9059cbb14610833578063bc197c811461085f578063d10424c714610a58576101ec565b80638da5cb5b116100fb5780638da5cb5b146106745780638f8d8a931461067c57806395d89b41146106995780639e6405a7146106a1576101ec565b806370a08231146105ec57806379cc6790146106125780638c7a63ae1461063e576101ec565b80632dea68901161018e57806342966c681161016857806342966c68146103d5578063456a09c8146103f25780635bf8633a146104bd5780636486279d146104c5576101ec565b80632dea689014610383578063313ce5671461038b57806339509351146103a9576101ec565b806318160ddd116101ca57806318160ddd146102ea578063193eec1a146103045780632131c68c1461032957806323b872dd1461034d576101ec565b806301ffc9a7146101f157806306fdde0314610241578063095ea7b3146102be575b600080fd5b61022d6004803603602081101561020757600080fd5b50357bffffffffffffffffffffffffffffffffffffffffffffffffffffffff1916610c55565b604080519115158252519081900360200190f35b610249610c89565b6040805160208082528351818301528351919283929083019185019080838360005b8381101561028357818101518382015260200161026b565b50505050905090810190601f1680156102b05780820380516001836020036101000a031916815260200191505b509250505060405180910390f35b61022d600480360360408110156102d457600080fd5b50600160a060020a038135169060200135610d17565b6102f2610d2e565b60408051918252519081900360200190f35b6103276004803603604081101561031a57600080fd5b5080359060200135610d34565b005b610331610e4b565b60408051600160a060020a039092168252519081900360200190f35b61022d6004803603606081101561036357600080fd5b50600160a060020a03813581169160208101359091169060400135610e5a565b6102f2610ec3565b610393610ec9565b6040805160ff9092168252519081900360200190f35b61022d600480360360408110156103bf57600080fd5b50600160a060020a038135169060200135610ed2565b610327600480360360208110156103eb57600080fd5b5035610f08565b6103276004803603606081101561040857600080fd5b81019060208101813564010000000081111561042357600080fd5b82018360208201111561043557600080fd5b8035906020019184602083028401116401000000008311171561045757600080fd5b91939092909160208101903564010000000081111561047557600080fd5b82018360208201111561048757600080fd5b803590602001918460208302840111640100000000831117156104a957600080fd5b919350915035600160a060020a0316610f15565b6103316110dc565b610327600480360360408110156104db57600080fd5b8101906020810181356401000000008111156104f657600080fd5b82018360208201111561050857600080fd5b8035906020019184602083028401116401000000008311171561052a57600080fd5b919080806020026020016040519081016040528093929190818152602001838360200280828437600092019190915250929594936020810193503591505064010000000081111561057a57600080fd5b82018360208201111561058c57600080fd5b803590602001918460208302840111640100000000831117156105ae57600080fd5b9190808060200260200160405190810160405280939291908181526020018383602002808284376000920191909152509295506110eb945050505050565b6102f26004803603602081101561060257600080fd5b5035600160a060020a03166111ef565b6103276004803603604081101561062857600080fd5b50600160a060020a03813516906020013561120a565b61065b6004803603602081101561065457600080fd5b5035611251565b6040805192835260208301919091528051918290030190f35b610331611274565b6102f26004803603602081101561069257600080fd5b5035611283565b610249611295565b610327600480360360808110156106b757600080fd5b8101906020810181356401000000008111156106d257600080fd5b8201836020820111156106e457600080fd5b8035906020019184602083028401116401000000008311171561070657600080fd5b91939092909160208101903564010000000081111561072457600080fd5b82018360208201111561073657600080fd5b8035906020019184602083028401116401000000008311171561075857600080fd5b91939092909160208101903564010000000081111561077657600080fd5b82018360208201111561078857600080fd5b803590602001918460208302840111640100000000831117156107aa57600080fd5b9193909290916020810190356401000000008111156107c857600080fd5b8201836020820111156107da57600080fd5b803590602001918460208302840111640100000000831117156107fc57600080fd5b5090925090506112f0565b61022d6004803603604081101561081d57600080fd5b50600160a060020a03813516906020013561162e565b61022d6004803603604081101561084957600080fd5b50600160a060020a03813516906020013561167d565b610a26600480360360a081101561087557600080fd5b600160a060020a0382358116926020810135909116918101906060810160408201356401000000008111156108a957600080fd5b8201836020820111156108bb57600080fd5b803590602001918460208302840111640100000000831117156108dd57600080fd5b919080806020026020016040519081016040528093929190818152602001838360200280828437600092019190915250929594936020810193503591505064010000000081111561092d57600080fd5b82018360208201111561093f57600080fd5b8035906020019184602083028401116401000000008311171561096157600080fd5b91908080602002602001604051908101604052809392919081815260200183836020028082843760009201919091525092959493602081019350359150506401000000008111156109b157600080fd5b8201836020820111156109c357600080fd5b803590602001918460018302840111640100000000831117156109e557600080fd5b91908080601f01602080910402602001604051908101604052809392919081815260200183838082843760009201919091525092955061168a945050505050565b604080517bffffffffffffffffffffffffffffffffffffffffffffffffffffffff199092168252519081900360200190f35b6102f260048036036020811015610a6e57600080fd5b5035611871565b6102f260048036036040811015610a8b57600080fd5b50600160a060020a038135811691602001351661188c565b6102f26118b7565b610a26600480360360a0811015610ac157600080fd5b600160a060020a03823581169260208101359091169160408201359160608101359181019060a081016080820135640100000000811115610b0157600080fd5b820183602082011115610b1357600080fd5b80359060200191846001830284011164010000000083111715610b3557600080fd5b91908080601f0160208091040260200160405190810160405280939291908181526020018383808284376000920191909152509295506118bd945050505050565b610327600480360360c0811015610b8c57600080fd5b810190602081018135640100000000811115610ba757600080fd5b820183602082011115610bb957600080fd5b80359060200191846001830284011164010000000083111715610bdb57600080fd5b919390929091602081019035640100000000811115610bf957600080fd5b820183602082011115610c0b57600080fd5b80359060200191846001830284011164010000000083111715610c2d57600080fd5b9193509150803590602081013590600160a060020a0360408201358116916060013516611a32565b7bffffffffffffffffffffffffffffffffffffffffffffffffffffffff191660009081526006602052604090205460ff1690565b6003805460408051602060026001851615610100026000190190941693909304601f81018490048402820184019092528181529291830182828015610d0f5780601f10610ce457610100808354040283529160200191610d0f565b820191906000526020600020905b815481529060010190602001808311610cf257829003601f168201915b505050505081565b6000610d24338484611ba7565b5060015b92915050565b60025481565b600754600160a060020a03163314610d96576040805160e560020a62461bcd02815260206004820152600b60248201527f21617574686f72697a6564000000000000000000000000000000000000000000604482015290519081900360640190fd5b6000828152600c602052604090205415610dfa576040805160e560020a62461bcd02815260206004820152601f60248201527f43616e6e6f74207365742065646974696f6e206e756d62657220616761696e00604482015290519081900360640190fd5b80610e395760405160e560020a62461bcd0281526004018080602001828103825260248152602001806126786024913960400191505060405180910390fd5b6000918252600c602052604090912055565b600854600160a060020a031681565b6000610e67848484611c99565b610eb98433610eb4856040518060600160405280602881526020016125e660289139600160a060020a038a1660009081526001602090815260408083203384529091529020549190611dfa565b611ba7565b5060019392505050565b600a5481565b60055460ff1681565b336000818152600160209081526040808320600160a060020a03871684529091528120549091610d24918590610eb49086611b43565b610f123382611e94565b50565b600184141561100457600c600086866000818110610f2f57fe5b9050602002013581526020019081526020016000205460001415610f8b576040805160e560020a62461bcd02815260206004820152601060248201526000805160206125c6833981519152604482015290519081900360640190fd5b610fcd33610fc885856000818110610f9f57fe5b90506020020135610fc289896000818110610fb657fe5b90506020020135611871565b90611f93565b611e94565b610fff308287876000818110610fdf57fe5b9050602002013586866000818110610ff357fe5b90506020020135611fef565b611073565b611073308287878080602002602001604051908101604052809392919081815260200183836020028082843760009201919091525050604080516020808b0282810182019093528a82529093508a9250899182918501908490808284376000920191909152506120be92505050565b8282604051808383602002808284376040519201829003822094508993508892508190508360208402808284376040519201829003822094507f4b24ec11eaffb918f4ecb6e20f72842b4d6fc3d7fc18165b9000158982c2c9c993506000925050a35050505050565b600954600160a060020a031681565b600754600160a060020a0316331461114d576040805160e560020a62461bcd02815260206004820152600b60248201527f21617574686f72697a6564000000000000000000000000000000000000000000604482015290519081900360640190fd5b80518251146111a6576040805160e560020a62461bcd02815260206004820152601a60248201527f4172726179206d75737420686176652073616d652073697a6521000000000000604482015290519081900360640190fd5b60005b82518110156111ea576111e28382815181106111c157fe5b60200260200101518383815181106111d557fe5b6020026020010151610d34565b6001016111a9565b505050565b600160a060020a031660009081526020819052604090205490565b600061123a8260405180606001604052806024815260200161260e60249139611233863361188c565b9190611dfa565b9050611247833383611ba7565b6111ea8383611e94565b6000818152600c6020526040812054819061126b84611871565b91509150915091565b600754600160a060020a031681565b600c6020526000908152604090205481565b6004805460408051602060026001851615610100026000190190941693909304601f81018490048402820184019092528181529291830182828015610d0f5780601f10610ce457610100808354040283529160200191610d0f565b60008060005b858110156113545761132389898381811061130d57fe5b9050602002013584611b4390919063ffffffff16565b925061134a85858381811061133457fe5b9050602002013583611b4390919063ffffffff16565b91506001016112f6565b508082146113ac576040805160e560020a62461bcd02815260206004820181905260248201527f4e65656420746f20737761702073616d6520616d6f756e74206f66204e465473604482015290519081900360640190fd5b6009546040517f2eb2c2d60000000000000000000000000000000000000000000000000000000081523060048201818152336024840181905260a06044850190815260a485018b9052600160a060020a0390951694632eb2c2d69491928c928c928c928c929091906064810190608481019060c401886020890280828437600083820152601f01601f19169091018581038452868152602090810191508790870280828437600081840152601f19601f820116905080830192505050848103825260038152602001807f30783000000000000000000000000000000000000000000000000000000000008152506020019950505050505050505050600060405180830381600087803b1580156114c157600080fd5b505af11580156114d5573d6000803e3d6000fd5b50505050600960009054906101000a9004600160a060020a0316600160a060020a0316632eb2c2d633308d8d8d8d6040518763ffffffff167c01000000000000000000000000000000000000000000000000000000000281526004018087600160a060020a0316815260200186600160a060020a031681526020018060200180602001806020018481038452888882818152602001925060200280828437600083820152601f01601f19169091018581038452868152602090810191508790870280828437600081840152601f19601f820116905080830192505050848103825260088152602001807f494e5445524e414c0000000000000000000000000000000000000000000000008152506020019950505050505050505050600060405180830381600087803b15801561160a57600080fd5b505af115801561161e573d6000803e3d6000fd5b5050505050505050505050505050565b6000610d243384610eb4856040518060600160405280602581526020016126c060259139336000908152600160209081526040808320600160a060020a038d1684529091529020549190611dfa565b6000610d24338484611c99565b600954600090600160a060020a031633146116ef576040805160e560020a62461bcd02815260206004820152600960248201527f666f7262696464656e0000000000000000000000000000000000000000000000604482015290519081900360640190fd5b815160208301207f3ef23a75cdc0ee453858c625d528a8ed734f4d7af19c18f576ef9e0acee106c3146118465760005b845181101561184457600c600086838151811061173857fe5b602002602001015181526020019081526020016000205460001415611795576040805160e560020a62461bcd02815260206004820152601060248201526000805160206125c6833981519152604482015290519081900360640190fd5b60006117b38683815181106117a657fe5b6020026020010151611871565b905061180a600860009054906101000a9004600160a060020a031661180560646117ff600b54610fc28b89815181106117e857fe5b602002602001015188611f9390919063ffffffff16565b906122a6565b612310565b61183b8861180560646117ff61182c600b54606461240390919063ffffffff16565b610fc28b89815181106117e857fe5b5060010161171f565b505b507fbc197c810000000000000000000000000000000000000000000000000000000095945050505050565b6000818152600c6020526040812054600a54610d28916122a6565b600160a060020a03918216600090815260016020908152604080832093909416825291909152205490565b600b5481565b600954600090600160a060020a03163314611922576040805160e560020a62461bcd02815260206004820152600960248201527f666f7262696464656e0000000000000000000000000000000000000000000000604482015290519081900360640190fd5b6000848152600c6020526040902054611973576040805160e560020a62461bcd02815260206004820152601060248201526000805160206125c6833981519152604482015290519081900360640190fd5b815160208301207f3ef23a75cdc0ee453858c625d528a8ed734f4d7af19c18f576ef9e0acee106c314611a075760006119ab85611871565b600854600b549192506119d991600160a060020a0390911690611805906064906117ff90610fc2878b611f93565b611a058761180560646117ff6119fb600b54606461240390919063ffffffff16565b610fc2878b611f93565b505b507ff23a6e610000000000000000000000000000000000000000000000000000000095945050505050565b600754600160a060020a03163314611a94576040805160e560020a62461bcd02815260206004820152600b60248201527f21617574686f72697a6564000000000000000000000000000000000000000000604482015290519081900360640190fd5b600754600160a060020a0316611ade5760405160e560020a62461bcd0281526004018080602001828103825260218152602001806125846021913960400191505060405180910390fd5b611aea60038989612463565b50611af760048787612463565b50600a93909355600b9190915560078054600160a060020a0392831673ffffffffffffffffffffffffffffffffffffffff19918216179091556008805492909316911617905550505050565b600082820183811015611ba0576040805160e560020a62461bcd02815260206004820152601b60248201527f536166654d6174683a206164646974696f6e206f766572666c6f770000000000604482015290519081900360640190fd5b9392505050565b600160a060020a038316611bef5760405160e560020a62461bcd02815260040180806020018281038252602481526020018061269c6024913960400191505060405180910390fd5b600160a060020a038216611c375760405160e560020a62461bcd02815260040180806020018281038252602281526020018061253c6022913960400191505060405180910390fd5b600160a060020a03808416600081815260016020908152604080832094871680845294825291829020859055815185815291517f8c5be1e5ebec7d5bd14f71427d1e84f3dd0314c0f7b2291e5b200ac8c7c3b9259281900390910190a3505050565b600160a060020a038316611ce15760405160e560020a62461bcd0281526004018080602001828103825260258152602001806126536025913960400191505060405180910390fd5b600160a060020a038216611d295760405160e560020a62461bcd0281526004018080602001828103825260238152602001806124f76023913960400191505060405180910390fd5b611d348383836111ea565b611d718160405180606001604052806026815260200161255e60269139600160a060020a0386166000908152602081905260409020549190611dfa565b600160a060020a038085166000908152602081905260408082209390935590841681522054611da09082611b43565b600160a060020a038084166000818152602081815260409182902094909455805185815290519193928716927fddf252ad1be2c89b69c2b068fc378daa952ba7f163c4a11628f55a4df523b3ef92918290030190a3505050565b60008184841115611e8c5760405160e560020a62461bcd0281526004018080602001828103825283818151815260200191508051906020019080838360005b83811015611e51578181015183820152602001611e39565b50505050905090810190601f168015611e7e5780820380516001836020036101000a031916815260200191505b509250505060405180910390fd5b505050900390565b600160a060020a038216611edc5760405160e560020a62461bcd0281526004018080602001828103825260218152602001806126326021913960400191505060405180910390fd5b611ee8826000836111ea565b611f258160405180606001604052806022815260200161251a60229139600160a060020a0385166000908152602081905260409020549190611dfa565b600160a060020a038316600090815260208190526040902055600254611f4b9082612403565b600255604080518281529051600091600160a060020a038516917fddf252ad1be2c89b69c2b068fc378daa952ba7f163c4a11628f55a4df523b3ef9181900360200190a35050565b600082611fa257506000610d28565b82820282848281611faf57fe5b0414611ba05760405160e560020a62461bcd0281526004018080602001828103825260218152602001806125a56021913960400191505060405180910390fd5b600954604080517ff242432a000000000000000000000000000000000000000000000000000000008152600160a060020a0387811660048301528681166024830152604482018690526064820185905260a06084830152600360a48301527f307830000000000000000000000000000000000000000000000000000000000060c48301529151919092169163f242432a9160e480830192600092919082900301818387803b1580156120a057600080fd5b505af11580156120b4573d6000803e3d6000fd5b5050505050505050565b60005b825181101561216957600c60008483815181106120da57fe5b602002602001015181526020019081526020016000205460001415612137576040805160e560020a62461bcd02815260206004820152601060248201526000805160206125c6833981519152604482015290519081900360640190fd5b61216133610fc884848151811061214a57fe5b6020026020010151610fc28786815181106117a657fe5b6001016120c1565b506009546040517f2eb2c2d6000000000000000000000000000000000000000000000000000000008152600160a060020a0386811660048301908152868216602484015260a060448401908152865160a485015286519290941693632eb2c2d6938993899389938993919290916064810191608482019160c401906020808901910280838360005b838110156122095781810151838201526020016121f1565b50505050905001848103835285818151815260200191508051906020019060200280838360005b83811015612248578181015183820152602001612230565b50505050905001848103825260038152602001807f3078300000000000000000000000000000000000000000000000000000000000815250602001975050505050505050600060405180830381600087803b1580156120a057600080fd5b60008082116122ff576040805160e560020a62461bcd02815260206004820152601a60248201527f536166654d6174683a206469766973696f6e206279207a65726f000000000000604482015290519081900360640190fd5b81838161230857fe5b049392505050565b600160a060020a03821661236e576040805160e560020a62461bcd02815260206004820152601f60248201527f45524332303a206d696e7420746f20746865207a65726f206164647265737300604482015290519081900360640190fd5b61237a600083836111ea565b6002546123879082611b43565b600255600160a060020a0382166000908152602081905260409020546123ad9082611b43565b600160a060020a0383166000818152602081815260408083209490945583518581529351929391927fddf252ad1be2c89b69c2b068fc378daa952ba7f163c4a11628f55a4df523b3ef9281900390910190a35050565b60008282111561245d576040805160e560020a62461bcd02815260206004820152601e60248201527f536166654d6174683a207375627472616374696f6e206f766572666c6f770000604482015290519081900360640190fd5b50900390565b828054600181600116156101000203166002900490600052602060002090601f016020900481019282601f106124a45782800160ff198235161785556124d1565b828001600101855582156124d1579182015b828111156124d15782358255916020019190600101906124b6565b506124dd9291506124e1565b5090565b5b808211156124dd57600081556001016124e256fe45524332303a207472616e7366657220746f20746865207a65726f206164647265737345524332303a206275726e20616d6f756e7420657863656564732062616c616e636545524332303a20617070726f766520746f20746865207a65726f206164647265737345524332303a207472616e7366657220616d6f756e7420657863656564732062616c616e636563616e6e6f742073657420636f6e7472616374206f776e657220746f207a65726f536166654d6174683a206d756c7469706c69636174696f6e206f766572666c6f7765646974696f6e73206e6f74207365740000000000000000000000000000000045524332303a207472616e7366657220616d6f756e74206578636565647320616c6c6f77616e636545524332303a206275726e20616d6f756e74206578636565647320616c6c6f77616e636545524332303a206275726e2066726f6d20746865207a65726f206164647265737345524332303a207472616e736665722066726f6d20746865207a65726f206164647265737343616e6e6f742073657420616e2065646974696f6e206e756d62657220746f207a65726f45524332303a20617070726f76652066726f6d20746865207a65726f206164647265737345524332303a2064656372656173656420616c6c6f77616e63652062656c6f77207a65726fa26469706673582212208968eb902e28b38939386f02eb552f4838196590f52187d5a946c4447c027ec564736f6c634300060c0033",
  "immutableReferences": {},
  "source": "// SPDX-License-Identifier: UNLICENSED\npragma solidity ^0.6.0;\n\n// ERC1155\nimport \"@openzeppelin/contracts/token/ERC1155/ERC1155Receiver.sol\";\nimport \"@openzeppelin/contracts/token/ERC1155/IERC1155.sol\";\n\nimport \"./ERC20.sol\";\n\n//import \"@openzeppelin/contracts/utils/EnumerableSet.sol\";\n\ncontract SNAFU20Pair is ERC20, ERC1155Receiver {\n    address public owner;\n    address public daoAddress;\n    address public nftAddress;\n    uint256 public max_token_value_cap;\n    uint256 public fee;\n\n    mapping(uint256 => uint256) public tokenIdsToEditions;\n\n    //using EnumerableSet for EnumerableSet.UintSet;\n    //EnumerableSet.UintSet lockedNfts;\n\n    event Withdraw(uint256[] indexed _tokenIds, uint256[] indexed amounts);\n\n    // create new token\n    constructor(\n        string memory _name,\n        string memory _symbol,\n        uint256 _initialSupply,\n        address _nftAddress,\n        address _daoAddress,\n        uint256 _fee,\n        uint256 _max_token_value_cap\n    ) public {\n        _mint(msg.sender, _initialSupply);\n        owner = msg.sender;\n        fee = _fee;\n        name = _name;\n        symbol = _symbol;\n        decimals = 18;\n        nftAddress = _nftAddress;\n        daoAddress = _daoAddress;\n        max_token_value_cap = _max_token_value_cap;\n    }\n\n    function getTokenValue(uint256 tokenId) public view returns (uint256) {\n        return max_token_value_cap.div(tokenIdsToEditions[tokenId]);\n    }\n\n    function getTokenInfo(uint256 tokenId)\n        public\n        view\n        returns (uint256, uint256)\n    {\n        return (tokenIdsToEditions[tokenId], getTokenValue(tokenId));\n    }\n\n    // withdraw nft and burn tokens\n    function withdraw(\n        uint256[] calldata _tokenIds,\n        uint256[] calldata amounts,\n        address receipient\n    ) external {\n        if (_tokenIds.length == 1) {\n            require(tokenIdsToEditions[_tokenIds[0]] != 0, \"editions not set\");\n            _burn(msg.sender, (getTokenValue(_tokenIds[0]).mul(amounts[0])));\n            _withdraw1155(address(this), receipient, _tokenIds[0], amounts[0]);\n        } else {\n            _batchWithdraw1155(address(this), receipient, _tokenIds, amounts);\n        }\n\n        emit Withdraw(_tokenIds, amounts);\n    }\n\n    function _withdraw1155(\n        address _from,\n        address _to,\n        uint256 _tokenId,\n        uint256 value\n    ) internal {\n        IERC1155(nftAddress).safeTransferFrom(_from, _to, _tokenId, value, \"0x0\");\n    }\n\n    function _batchWithdraw1155(\n        address _from,\n        address _to,\n        uint256[] memory _tokenIds,\n        uint256[] memory amounts\n    ) internal {\n        for (uint256 i = 0; i < _tokenIds.length; i++) {\n            require(tokenIdsToEditions[_tokenIds[i]] != 0, \"editions not set\");\n            _burn(msg.sender, (getTokenValue(_tokenIds[i]).mul(amounts[i])));\n        }\n\n        IERC1155(nftAddress).safeBatchTransferFrom(\n            _from,\n            _to,\n            _tokenIds,\n            amounts,\n            \"0x0\"\n        );\n    }\n\n    //TODO!\n    function swap1155(\n        uint256[] calldata in_ids,\n        uint256[] calldata in_amounts,\n        uint256[] calldata out_ids,\n        uint256[] calldata out_amounts\n    ) external {\n        uint256 ins;\n        uint256 outs;\n\n        for (uint256 i = 0; i < out_ids.length; i++) {\n            ins = ins.add(in_amounts[i]);\n            outs = outs.add(out_amounts[i]);\n        }\n\n        require(ins == outs, \"Need to swap same amount of NFTs\");\n\n        IERC1155(nftAddress).safeBatchTransferFrom(\n            address(this),\n            msg.sender,\n            out_ids,\n            out_amounts,\n            \"0x0\"\n        );\n        IERC1155(nftAddress).safeBatchTransferFrom(\n            msg.sender,\n            address(this),\n            in_ids,\n            in_amounts,\n            \"INTERNAL\"\n        );\n    }\n\n    function onERC1155Received(\n        address operator,\n        address,\n        uint256 tokenId,\n        uint256 value,\n        bytes memory data\n    ) public virtual override returns (bytes4) {\n        require(nftAddress == msg.sender, \"forbidden\");\n        require(tokenIdsToEditions[tokenId] != 0, \"editions not set\");\n        if (keccak256(data) != keccak256(\"INTERNAL\")) {\n            uint256 tokenPrice = getTokenValue(tokenId);\n            _mint(daoAddress, (tokenPrice.mul(value)).mul(fee).div(100));\n            _mint(\n                operator,\n                (tokenPrice.mul(value)).mul(uint256(100).sub(fee)).div(100)\n            );\n        }\n        return this.onERC1155Received.selector;\n    }\n\n    function onERC1155BatchReceived(\n        address operator,\n        address,\n        uint256[] memory ids,\n        uint256[] memory values,\n        bytes memory data\n    ) public virtual override returns (bytes4) {\n        require(nftAddress == msg.sender, \"forbidden\");\n        if (keccak256(data) != keccak256(\"INTERNAL\")) {\n            for (uint256 i = 0; i < ids.length; i++) {\n                require(tokenIdsToEditions[ids[i]] != 0, \"editions not set\");\n                uint256 tokenPrice = getTokenValue(ids[i]);\n\n                _mint(\n                    daoAddress,\n                    (tokenPrice.mul(values[i])).mul(fee).div(100)\n                );\n                _mint(\n                    operator,\n                    (tokenPrice.mul(values[i])).mul(uint256(100).sub(fee)).div(\n                        100\n                    )\n                );\n            }\n        }\n        return this.onERC1155BatchReceived.selector;\n    }\n\n    // set new params\n    function setParams(\n        string calldata _name,\n        string calldata _symbol,\n        uint256 _max_token_value_cap,\n        uint256 _fee,\n        address _owner,\n        address _daoAddress\n    ) public {\n        require(msg.sender == owner, \"!authorized\");\n        require(owner != address(0), \"cannot set contract owner to zero\");\n        name = _name;\n        symbol = _symbol;\n        max_token_value_cap = _max_token_value_cap;\n        fee = _fee;\n        owner = _owner;\n        daoAddress = _daoAddress;\n    }\n\n    function setTokenEditions(uint256 tokenId, uint256 editions) public {\n        require(msg.sender == owner, \"!authorized\");\n        //?\n        require(\n            tokenIdsToEditions[tokenId] == 0,\n            \"Cannot set edition number again\"\n        );\n        require(editions != 0, \"Cannot set an edition number to zero\");\n        tokenIdsToEditions[tokenId] = editions;\n    }\n\n    function setTokenEditionsBatch(\n        uint256[] memory tokenIds,\n        uint256[] memory editions\n    ) public {\n        require(msg.sender == owner, \"!authorized\");\n        require(\n            tokenIds.length == editions.length,\n            \"Array must have same size!\"\n        );\n        for (uint256 i = 0; i < tokenIds.length; i++) {\n            setTokenEditions(tokenIds[i], editions[i]);\n        }\n    }\n}\n",
  "sourcePath": "/home/franz/snafu/snafu20/smart-contracts/contracts/SNAFU20Pair.sol",
  "compiler": {
    "name": "solc",
    "version": "0.6.12+commit.27d51765.Emscripten.clang"
  },
  "schemaVersion": "3.3.4",
  "updatedAt": "2021-04-03T00:32:08.850Z",
  "devdoc": {
    "kind": "dev",
    "methods": {
      "allowance(address,address)": {
        "details": "See {IERC20-allowance}."
      },
      "approve(address,uint256)": {
        "details": "See {IERC20-approve}. Requirements: - `spender` cannot be the zero address."
      },
      "balanceOf(address)": {
        "details": "See {IERC20-balanceOf}."
      },
      "burnFrom(address,uint256)": {
        "details": "Destroys `amount` tokens from `account`, deducting from the caller's allowance. See {ERC20-_burn} and {ERC20-allowance}. Requirements: - the caller must have allowance for ``accounts``'s tokens of at least `amount`."
      },
      "decreaseAllowance(address,uint256)": {
        "details": "Atomically decreases the allowance granted to `spender` by the caller. This is an alternative to {approve} that can be used as a mitigation for problems described in {IERC20-approve}. Emits an {Approval} event indicating the updated allowance. Requirements: - `spender` cannot be the zero address. - `spender` must have allowance for the caller of at least `subtractedValue`."
      },
      "increaseAllowance(address,uint256)": {
        "details": "Atomically increases the allowance granted to `spender` by the caller. This is an alternative to {approve} that can be used as a mitigation for problems described in {IERC20-approve}. Emits an {Approval} event indicating the updated allowance. Requirements: - `spender` cannot be the zero address."
      },
      "supportsInterface(bytes4)": {
        "details": "See {IERC165-supportsInterface}. Time complexity O(1), guaranteed to always use less than 30 000 gas."
      },
      "transfer(address,uint256)": {
        "details": "See {IERC20-transfer}. Requirements: - `recipient` cannot be the zero address. - the caller must have a balance of at least `amount`."
      },
      "transferFrom(address,address,uint256)": {
        "details": "See {IERC20-transferFrom}. Emits an {Approval} event indicating the updated allowance. This is not required by the EIP. See the note at the beginning of {ERC20}; Requirements: - `sender` and `recipient` cannot be the zero address. - `sender` must have a balance of at least `amount`. - the caller must have allowance for ``sender``'s tokens of at least `amount`."
      }
    },
    "version": 1
  },
  "userdoc": {
    "kind": "user",
    "methods": {},
    "version": 1
  }
}